:100000000C9462000C948A000C948A000C948A0070
:100010000C948A000C948A000C948A000C948A0038
:100020000C948A000C948A000C948A000C94A1030E
:100030000C948A000C948A000C948A000C948A0018
:100040000C94FF020C948A000C946F030C944903E7
:100050000C948A000C948A000C948A000C948A00F8
:100060000C948A000C948A000000000024002700F1
:100070002A000000000023002600290000000000E4
:10008000250028002B0004040404040404040202D4
:100090000202020203030303030301020408102007
:1000A0004080010204081020010204081020000012
:1000B0000008000201000003040700000000000027
:1000C00000005D0411241FBECFEFD8E0DEBFCDBF1E
:1000D00011E0A0E0B1E0E2E4F3E102C005900D928E
:1000E000A236B107D9F722E0A2E6B1E001C01D9225
:1000F000A633B207E1F710E0C2E6D0E004C02197D2
:10010000FE010E948D07C136D107C9F70E94BA04CB
:100110000C949F090C9400008F929F92AF92BF9213
:10012000FF920F931F93CF93DF93F0902F022BE05A
:100130002F1508F44CC02091310208E512E0021B93
:10014000110927FD1395000F111F000F111F20919A
:100150003002C8E8D0E0C21BD10927FDD395CC0FEF
:10016000DD1FCC0FDD1F4E010D2E000CAA08BB08B1
:100170009801012E000C440B550B281939094A0926
:100180005B09DC010E94110724EB30E040E050E005
:100190000E94E706820E931EA41EB51E8C169D06B5
:1001A0002CF0E801801691060CF4E4012297CC0FA4
:1001B000DD1F2FB7F8948F2D90E0FC01EE0FFF1F8D
:1001C000E80FF91FE65FFD4FD283C1832FBFDF9198
:1001D000CF911F910F91FF90BF90AF909F908F9004
:1001E0000895833081F028F4813099F08230A9F0AD
:1001F00008958730A9F08830C9F08430B1F4809137
:1002000080008F7D03C0809180008F778093800075
:10021000089584B58F7784BD089584B58F7DFBCF15
:100220008091B0008F778093B00008958091B000E6
:100230008F7DF9CF1F93CF93DF93282F30E0F90103
:10024000E255FF4F8491F901E656FF4FD491F90131
:10025000EA57FF4FC491CC23A9F0162F81110E94B9
:10026000F100EC2FF0E0EE0FFF1FE458FF4FA591D7
:10027000B4918FB7F894EC91111108C0D095DE239A
:10028000DC938FBFDF91CF911F910895DE2BF8CFC4
:100290003FB7F8948091650190916601A091670144
:1002A000B091680126B5A89B05C02F3F19F00196B3
:1002B000A11DB11D3FBFBA2FA92F982F8827BC01C0
:1002C000CD01620F711D811D911D42E0660F771FE8
:1002D000881F991F4A95D1F70895AF92BF92CF9288
:1002E000DF92EF92FF920F931F93CF93DF936C01F6
:1002F0007B018B01040F151FEB015E01AE18BF08D7
:10030000C017D10759F06991D601ED91FC91019088
:10031000F081E02DC6010995892B79F7C501DF91A0
:10032000CF911F910F91FF90EF90DF90CF90BF90F2
:10033000AF900895FC01538D448D252F30E0842F1C
:1003400090E0821B930B541710F0CF9608950197FD
:100350000895FC01918D828D981761F0A28DAE0FEA
:10036000BF2FB11D5D968C91928D9F5F9F73928F71
:1003700090E008958FEF9FEF08952FB7F894809144
:10038000690190916A01A0916B01B0916C012FBF3E
:100390008093750190937601A0937701B0937801D3
:1003A0008DE691E00E94A90197FF26C02FB7F8942F
:1003B0008091690190916A01A0916B01B0916C01EB
:1003C0002FBF409175015091760160917701709136
:1003D0007801841B950BA60BB70B409171015091CE
:1003E0007201609173017091740184179507A607DB
:1003F000B707B0F28FEF9FEF0895FC01918D828DCA
:10040000981731F0828DE80FF11D858D90E00895E9
:100410008FEF9FEF0895FC01918D228D892F90E041
:10042000805C9F4F821B91098F73992708958DE6F9
:1004300091E00E940B0221E0892B09F420E0822F39
:10044000089580E090E0892B29F00E941702811125
:100450000C9400000895FC01A48DA80FB92FB11DC4
:10046000A35ABF4F2C91848D90E001968F739927EA
:10047000848FA689B7892C93A089B1898C918370C8
:1004800080648C93938D848D981306C00288F389C1
:10049000E02D80818F7D80830895EF92FF920F93EE
:1004A0001F93CF93DF93EC0181E0888F9B8D8C8D20
:1004B00098131AC0E889F989808185FF15C09FB714
:1004C000F894EE89FF896083E889F98980818370D7
:1004D000806480839FBF81E090E0DF91CF911F9186
:1004E0000F91FF90EF900895F62E0B8D10E00F5FA7
:1004F0001F4F0F731127E02E8C8D8E110CC00FB67D
:1005000007FCFACFE889F989808185FFF5CFCE0114
:100510000E942B02F1CFEB8DEC0FFD2FF11DE35A62
:10052000FF4FF0829FB7F8940B8FEA89FB89808197
:100530008062CFCFCF93DF93EC01888D8823B9F011
:10054000AA89BB89E889F9898C9185FD03C08081DE
:1005500086FD0DC00FB607FCF7CF8C9185FFF2CF5B
:10056000808185FFEDCFCE010E942B02E9CFDF9184
:10057000CF910895CF93DF93FC0101900020E9F71C
:100580003197AF01481B590BBC018DE691E00E94E9
:100590006D01EC0142E050E069E171E08DE691E02F
:1005A0000E946D018C0F9D1FDF91CF9108950F93D5
:1005B0001F93CF93DF93EC0188819981009759F0C5
:1005C0002A813B812617370730F081E0DF91CF91F8
:1005D0001F910F9108958B016F5F7F4F0E94B808A4
:1005E000009759F0998388831B830A832C813D816E
:1005F000232B59F7FC011082E8CF80E0E7CF1F9250
:100600000F920FB60F9211242F933F938F939F93C6
:10061000AF93BF938091690190916A01A0916B01A2
:10062000B0916C013091640123E0230F2D3758F510
:100630000196A11DB11D20936401809369019093DF
:100640006A01A0936B01B0936C0180916501909158
:100650006601A0916701B09168010196A11DB11DCD
:100660008093650190936601A0936701B093680140
:10067000BF91AF919F918F913F912F910F900FBE9E
:100680000F901F90189526E8230F0296A11DB11D0B
:10069000D2CF1F920F920FB60F9211242F933F9338
:1006A0004F935F936F937F938F939F93AF93BF937A
:1006B000EF93FF938DE691E00E942B02FF91EF9163
:1006C000BF91AF919F918F917F916F915F914F916A
:1006D0003F912F910F900FBE0F901F9018951F9272
:1006E0000F920FB60F9211242F938F939F93EF9336
:1006F000FF93E0917D01F0917E018081E091830183
:10070000F091840182FD1BC09081809186018F5FF2
:100710008F7320918701821741F0E0918601F0E00C
:10072000E359FE4F958F80938601FF91EF919F9142
:100730008F912F910F900FBE0F901F901895808171
:10074000F4CF1F920F920FB60F9211242F933F9365
:100750004F935F936F937F938F939F93AF93BF93C9
:10076000CF93DF93EF93FF9380916201C0912E02AC
:10077000D0E087FF24C01092850010928400809101
:1007800062018F5F8093620180916201082E000CEC
:10079000990B8C179D0724F4809162018C30C4F171
:1007A0008091840090918500049680349C4908F4DF
:1007B0007AC08091840090918500049676C08091E3
:1007C0006201082E000C990B8C179D07C4F6E0916E
:1007D00062018E2FEE0F990BFC01EE0FFF1FE80F49
:1007E000F91FE65FFD4F808186FFC9CFE09162016E
:1007F0008E2FEE0F990BFC01EE0FFF1FE80FF91F74
:10080000E65FFD4F808160E08F730E941A01B7CFD1
:100810002091840030918500E09162018E2FEE0FCF
:10082000990BFC01EE0FFF1FE80FF91FE65FFD4F6C
:1008300081819281820F931F909389008093880019
:10084000E09162018E2FEE0F990BFC01EE0FFF1F5E
:10085000E80FF91FE65FFD4F808186FF11C0E09130
:1008600062018E2FEE0F990BFC01EE0FFF1FE80FB8
:10087000F91FE65FFD4F808161E08F730E941A01CE
:10088000FF91EF91DF91CF91BF91AF919F918F91A8
:100890007F916F915F914F913F912F910F900FBE7C
:1008A0000F901F90189580E49CE9909389008093A5
:1008B00088008FEF80936201E3CF10927001109255
:1008C0006F0188EE93E0A0E0B0E080937101909317
:1008D0007201A0937301B09374018BE091E0909347
:1008E0006E0180936D0185EC90E090937A01809386
:1008F000790184EC90E090937C0180937B0180EC03
:1009000090E090937E0180937D0181EC90E0909344
:10091000800180937F0182EC90E09093820180932C
:10092000810186EC90E09093840180938301109282
:10093000860110928701109288011092890180919E
:100940002E028C3098F491E0980F90932E028093B1
:100950002F0290E0FC01EE0FFF1FE80FF91FE65F8A
:10096000FD4F88EB9BE09283818308958FEF809306
:100970002F020895CF93DF93CDB7DEB72C970FB634
:10098000F894DEBF0FBECDBF789484B5826084BD7D
:1009900084B5816084BD85B5826085BD85B5816083
:1009A00085BD80916E00816080936E001092810001
:1009B00080918100826080938100809181008160BC
:1009C000809381008091800081608093800080917D
:1009D000B10084608093B1008091B0008160809309
:1009E000B00080917A00846080937A0080917A00D0
:1009F000826080937A0080917A00816080937A008F
:100A000080917A00806880937A001092C1008CE90E
:100A1000882E80E0982EF4012491E8E8F0E084919B
:100A20008823C9F090E0880F991FFC01E859FF4F17
:100A3000A591B491FC01E458FF4F459154919FB7A3
:100A4000F8943C91822F809583238C93FA018081C6
:100A5000282B20839FBF80912F028C3008F068C024
:100A6000E3EAF0E02491EFE8F0E08491882399F044
:100A700090E0880F991FFC01E859FF4FA591B491B0
:100A8000FC01E458FF4F859194918FB7F894EC9155
:100A9000E22BEC938FBF80912F02282F30E0F901D9
:100AA000EE0FFF1FE20FF31FE65FFD4F9081907C7A
:100AB0009960908310923002109231022CE0622FE4
:100AC0000E948107829FB001112430E020E0AB0139
:100AD000420F531FFA01EE0FFF1FE40FF51FE65FF1
:100AE000FD4F908196FD16C02F5F3F4F2C30310592
:100AF00071F781110FC01092800082E08093810015
:100B00001092850010928400B19A80916F008260EB
:100B100080936F00E0912F028E2F90E0FC01EE0F8A
:100B2000FF1FE80FF91FE65FFD4F8081806480831F
:100B300090E080E00E948C00E0917D01F0917E01C8
:100B400082E08083E0917901F0917A011082E09156
:100B50007B01F0917C018FEC808310928501E09104
:100B60008101F091820186E08083E0917F01F09124
:100B70008001808180618083E0917F01F09180011C
:100B8000808188608083E0917F01F0918001808185
:100B900080688083E0917F01F091800180818F7D6A
:100BA000808330EB232E30E0332E40E0A42E40E053
:100BB000B42EF1018491F4011491E8E8F0E004917D
:100BC000002309F45BC081110E94F100E02FF0E0E6
:100BD000EE0FFF1FEE58FF4FA591B4918C91182393
:100BE00091E080E009F490E0092F182F8DE691E064
:100BF0000E940B02F12C181619060CF08AC01886F8
:100C00001F821A8619861C861B8670E060E0CE0162
:100C100007960E94D7022F813885811132C0211595
:100C2000310519F0C9010E942F0818861F821C8601
:100C30001B861A8619860E94BD0197FD2AC08A303C
:100C4000910539F189831A82EB84FC84FFEFEF1A56
:100C5000FF0AB701CE0107960E94D702882359F3F5
:100C60002F8138858B859C85BE016F5F7F4F820FFA
:100C7000931F0E947E09FC86EB86DDCF10E000E02A
:100C8000B5CF1C861B866BE171E0C9010E947E090D
:100C9000D2CF1A8219821C821B821E821D8264E0BE
:100CA00070E0CE0101960E94D70229813A8181111C
:100CB0007DC02115310519F0C9010E942F081A8243
:100CC00019821E821D821C821B8269807A808B851C
:100CD0009C85892B59F04F805884B301C2010E9432
:100CE00085097C01E418F508892B19F4EE24EA94AF
:100CF000FE2C6114710419F0C3010E942F08F094B6
:100D0000FF1CFF24FF1C8F819885009711F00E9423
:100D10002F0880910001882319F00115110511F0A9
:100D2000FF20A9F18091630121E082278093630174
:100D3000882309F445C08AE590E00E948C0081E296
:100D400091E00E94BA020E9448016B017C0188EC8C
:100D5000482E512C612C712C0E9448016C197D0980
:100D60008E099F09683E734081059105A8F381E0D3
:100D7000481A51086108710898EEC90E93E0D91E0F
:100D8000E11CF11C411451046104710429F7017044
:100D900000930001A114B10409F40BCF0E941702C3
:100DA000882309F406CF0E94000003CF84E090E07E
:100DB0009E838D836CE171E0C9010E947E0985CF1D
:100DC00090E080E00E948C0081E491E0BACF052E93
:100DD00097FB1EF400940E94FE0657FD07D00E9468
:100DE000500707FC03D04EF40C94FE065095409536
:100DF000309521953F4F4F4F5F4F089590958095C7
:100E0000709561957F4F8F4F9F4F08950E94720795
:100E1000A59F900DB49F900DA49F800D911D11244E
:100E20000895B7FF0C9406070E940607821B930BD8
:100E300008952F923F924F925F926F927F928F927E
:100E40009F92AF92BF92CF92DF92EF92FF920F9359
:100E50001F93CF93DF93CDB7DEB7CA1BDB0B0FB663
:100E6000F894DEBF0FBECDBF09942A883988488820
:100E70005F846E847D848C849B84AA84B984C884B6
:100E8000DF80EE80FD800C811B81AA81B981CE0FAD
:100E9000D11D0FB6F894DEBF0FBECDBFED01089592
:100EA000A1E21A2EAA1BBB1BFD010DC0AA1FBB1F6E
:100EB000EE1FFF1FA217B307E407F50720F0A21BE0
:100EC000B30BE40BF50B661F771F881F991F1A944D
:100ED00069F760957095809590959B01AC01BD0177
:100EE000CF010895A29FB001B39FC001A39F700DD1
:100EF000811D1124911DB29F700D811D1124911D22
:100F00000895991B79E004C0991F961708F0961B65
:100F1000881F7A95C9F780950895EE0FFF1F0590F9
:100F2000F491E02D09940F931F93CF93DF938230B8
:100F3000910510F482E090E0E0913402F0913502E6
:100F400030E020E0B0E0A0E0309799F421153105C1
:100F500009F44AC0281B390B24303105D8F58A81A1
:100F60009B816115710589F1FB0193838283FE01E9
:100F700011C0408151810281138148175907E0F067
:100F80004817590799F4109761F012960C9312972D
:100F900013961C933296CF01DF91CF911F910F9141
:100FA00008950093340210933502F4CF21153105D2
:100FB00051F04217530738F0A901DB019A01BD0136
:100FC000DF01F801C1CFEF01F9CF90933502809393
:100FD0003402CDCFFE01E20FF31F81939193225093
:100FE000310939832883D7CF2091320230913302DF
:100FF000232B41F4209103013091040130933302FB
:101000002093320220910101309102012115310516
:1010100041F42DB73EB74091050150910601241BC4
:10102000350BE0913202F0913302E217F307A0F49E
:101030002E1B3F0B2817390778F0AC014E5F5F4F2E
:101040002417350748F04E0F5F1F5093330240932B
:101050003202819391939FCFF0E0E0E09CCFCF9359
:10106000DF930097E9F0FC01329713821282A0917E
:101070003402B0913502ED0130E020E01097A1F488
:1010800020813181820F931F2091320230913302EF
:101090002817390709F061C0F0933302E093320258
:1010A000DF91CF910895EA01CE17DF07E8F54A8175
:1010B0005B819E0141155105B1F7E901FB83EA838C
:1010C00049915991C40FD51FEC17FD0761F4808138
:1010D00091810296840F951FE9019983888382810B
:1010E00093819B838A83F0E0E0E012968D919C913E
:1010F00013970097B9F52D913C911197CD01029668
:10110000820F931F20913202309133022817390742
:1011100039F6309751F51092350210923402B0939F
:101120003302A0933202BCCFD383C283408151816A
:10113000840F951FC817D90761F44E5F5F4F8881F0
:101140009981480F591F518340838A819B819383E2
:1011500082832115310509F0B0CFF0933502E09379
:1011600034029ECFFD01DC01C0CF13821282D7CFA3
:10117000B0E0A0E0EEEBF8E00C941B078C010097C8
:1011800051F4CB010E9493078C01C801CDB7DEB7A3
:10119000E0E10C943707FC01E60FF71F9C01225099
:1011A0003109E217F30708F49DC0D901CD91DC9114
:1011B0001197C617D70798F0C530D10530F3CE0187
:1011C00004978617970708F3C61BD70B2297C1937E
:1011D000D1936D937C93CF010E942F08D6CF5B01F2
:1011E000AC1ABD0A4C018C0E9D1EA0913402B09128
:1011F0003502512C412CF12CE12C109731F58091C6
:101200003202909133028815990509F05CC04616A8
:10121000570608F058C08091010190910201009793
:1012200041F48DB79EB74091050150910601841B92
:10123000950BE817F90708F055C0F0933302E093D7
:101240003202F90171836083A0CF8D919C91119737
:1012500012966C90129713967C901397A815B90567
:1012600059F56C0142E0C40ED11CCA14DB0420F114
:10127000AC014A195B09DA011296159780F0628277
:10128000738251834083D9016D937C93E114F104FF
:1012900071F0D7011396FC93EE93129776CF2296B6
:1012A0008C0F9D1FF90191838083F301EFCFF093A1
:1012B0003502E093340269CF4816590608F42C0130
:1012C0007D01D3019ACFCB010E9493077C01009747
:1012D00049F0AE01B8010E947509C8010E942F08AB
:1012E000870153CF10E000E050CFFB01DC0102C0CA
:1012F00001900D9241505040D8F70895FB01DC0158
:1013000001900D920020E1F70895FB0151915523C2
:10131000A9F0BF01DC014D9145174111E1F759F4E6
:10132000CD010190002049F04D9140154111C9F3C4
:10133000FB014111EFCF81E090E001970895F8940F
:02134000FFCFDD
:1013420001000036028000000000004D026D019A8B
:10135200019A020B02A901FD010D0A004F50454EF0
:1013620000436174726163612041424552544120DD
:1013720028436F6D616E646F20507974686F6E29B7
:1013820000436174726163612046454348414441B0
:101392002028436F6D616E646F20507974686F6EA0
:0213A200290020
:00000001FF
